:100000000C946E000C9496000C9496000C9428139B
:100010000C9428130C9428130C9496000C949600BE
:100020000C9496000C9496000C9496000C949600F8
:100030000C9496000C9496000C9496000C949600E8
:100040000C94930A0C9496000C94EC070C941E08E4
:100050000C9496000C9496000C9496000C949600C8
:100060000C946F160C949600B30EB80EC30EC30E0C
:10007000C30EC30EC80ECA0ECD0E0000000800024B
:10008000010000030407000000000000000001025E
:100090000408102040800102040810200102040816
:1000A00010200404040404040404020202020202F4
:1000B00003030303030300000000230026002900BC
:1000C00000000000250028002B0000000000240094
:1000D00027002A0055014E08B415750111241FBED2
:1000E000CFEFD8E0DEBFCDBF15E0A0E0B1E0E2ED9C
:1000F000F4E302C005900D92AE3BB107D9F727E0BB
:10010000AEEBB5E001C01D92AA3CB207E1F710E0EA
:10011000CDE6D0E004C02197FE010E94F117CA3657
:10012000D107C9F70E947C080C945C1A0C9400005B
:10013000CF93DF9361E0809108010E94B90B60E0EA
:10014000809108010E94F50B61E0809106010E94F8
:10015000B90B60E0809106010E94F50B26E040E8B3
:1001600055E260E070E088E196E00E94830764E673
:1001700070E080E090E00E940E0B68E171E088E1A1
:1001800096E00E94DE088DEE95E00E94EE11C3E03D
:10019000D0E08DEE95E00E945E116AEF70E080E0A5
:1001A00090E00E940E0B8DEE95E00E9459116AEFCF
:1001B00070E080E090E00E940E0B219751F78DEEE9
:1001C00095E00E945E1140E855E260E070E08FEB40
:1001D00095E00E948D0D8FEB95E00E94470F8823DC
:1001E00011F166E371E088E196E00E94DE088FEB92
:1001F00095E00E94EC1060E571E088E196E00E94D5
:10020000D8086091C3057091C4054AE050E088E1C8
:1002100096E00E945F0961E671E088E196E0DF9177
:10022000CF910C94DE086CE671E088E196E00E94C4
:10023000DE0861E070E080E090E00E940E0BF9CFF4
:10024000CF93682F70E08FEB95E00E945310C82F7A
:10025000811108C06FE871E088E196E00E94DE0835
:1002600080E021C0813019F468E971E004C08B306E
:1002700039F46CEA71E088E196E00E94DE0812C071
:10028000883119F46EEC71E0F6CF65EE71E088E12B
:1002900096E00E94D80840E150E06C2F88E196E09B
:1002A0000E944D098C2FCF9108950F9320E043E0D9
:1002B00062E089EF95E00E94FB1300E022E040E15C
:1002C00067E28DEE95E00E94321161E875E087EEFD
:1002D00095E00E94930C20E030E0A90169EF75E001
:1002E0008FEB95E00F910C947A0D87EE95E00E94CC
:1002F000250C89EF95E00C94A21388E196E00E940A
:10030000A706892BD1F341E060E088E196E00E94E6
:10031000130A862F662389F30895CF93DF9367EF3F
:1003200071E088E196E00E94D8084AE050E06091D0
:10033000BE0588E196E00E944D098DEE95E00E9491
:10034000A41140E060E08DEE95E00E94B2116FE1F3
:1003500072E08DEE95E00E94D80864EF71E080E0D5
:1003600090E00E940E0B8DEE95E00E94A41140E0FB
:1003700060E08DEE95E00E94B2116FE272E08DEECA
:1003800095E00E94D80841E060E08DEE95E00E9483
:10039000B2116AE372E08DEE95E00E94D808CFEFCB
:1003A000DFEF88E196E00E94A706892B09F087C25B
:1003B0008FEB95E00E944E0FC82FD0E0813071F096
:1003C00038F0823041F0833061F464E572E00BC0B4
:1003D00068E472E008C064E575E005C068E971E0B2
:1003E00002C062E672E088E196E00E94DE08209793
:1003F000C1F661E08FEB95E00E948C0FC82F86302C
:1004000009F412C108F0EEC08111E6C060E772E0A5
:1004100088E196E00E94DE0860E872E088E196E0FC
:100420000E94DE088DEE95E00E94A41140E060E09D
:100430008DEE95E00E94B21160E872E08DEE95E0DD
:100440000E94D80860ED77E080E090E00E940E0BFB
:100450008FEB95E00E944E0F8230D1F761EE72E093
:1004600088E196E00E94D8084AE050E06091BE051D
:1004700088E196E00E944D0965EE72E088E196E021
:100480000E94DE088DEE95E00E94A41140E060E03D
:100490008DEE95E00E94B2116DEF72E08DEE95E069
:1004A0000E94D80841E060E08DEE95E00E94B21114
:1004B0006EE073E08DEE95E00E94D8088FEB95E03A
:1004C0000E944E0FC82F8130A9F040F0823069F0B1
:1004D000833009F042C064E572E00EC068E472E067
:1004E00088E196E00E94DE086CC064E575E088E172
:1004F00096E0E2CF68E971E088E196E00E94DE08CC
:100500006EE972E088E196E00E94DE088DEE95E0EB
:100510000E94A41140E060E08DEE95E00E94B211CF
:1005200063EA72E08DEE95E00E94D80841E060E059
:100530008DEE95E00E94B21161EB72E08DEE95E0D8
:100540000E94D80860ED77E080E090E00E940E0BFA
:100550008DEE95E00E94A411B1CF62E672E088E1D1
:1005600096E00E94DE086EE972E088E196E00E9463
:10057000DE088DEE95E00E94A41140E060E08DEE73
:1005800095E00E94B21163EA72E08DEE95E00E9460
:10059000D80841E060E08DEE95E00E94B21161EB79
:1005A00072E08DEE95E00E94D80860ED77E080E083
:1005B00090E00E940E0B8DEE95E00E94A411C111F7
:1005C0007DCF62E08FEB95E00E948C0FC82F8630C4
:1005D00059F140F4882359F0C13009F03EC168E96F
:1005E00071E03DC1C73019F1C53109F136C160E78D
:1005F00072E088E196E00E94DE086EE173E088E137
:1006000096E00E94D8084AE050E06091BE0588E17B
:1006100096E00E944D098FEB95E00E94CD0FC82F08
:1006200090E00097D1F506C06EE872E018C16DEB5E
:1006300072E015C163E373E088E196E00E94DE0892
:1006400061EE72E088E196E00E94D8084AE050E04E
:100650006091BE0588E196E00E944D096091BE055B
:1006600070E08FEB95E00E940B10C82F90E0009790
:1006700009F082C06EE573E088E196E00E94DE0832
:100680008DEE95E00E94A41140E060E08DEE95E0D3
:100690000E94B21166E673E05FC08130910529F5D2
:1006A00068E971E088E196E00E94DE086EE972E098
:1006B00088E196E00E94DE088DEE95E00E94A4118C
:1006C00040E060E08DEE95E00E94B21163EA72E0D6
:1006D0008DEE95E00E94D80841E060E08DEE95E057
:1006E0000E94B21161EB72E037C00A9709F0B5C001
:1006F00063E473E088E196E00E94DE086EE972E050
:1007000088E196E00E94DE088DEE95E00E94A4113B
:1007100040E060E08DEE95E00E94B21163EA72E085
:100720008DEE95E00E94D80841E060E08DEE95E006
:100730000E94B21161EB72E08DEE95E00E94D80844
:1007400060ED77E080E090E00E940E0B8DEE95E08A
:100750000E94A411CAE0B3C08DEE95E00E94D808B3
:1007600060ED77E080E090E00E940E0B8DEE95E06A
:100770000E94A411C1E0A3C08130910509F490CF7B
:100780008B309105A1F565E773E088E196E00E9462
:10079000DE086EE972E088E196E00E94DE088DEEE8
:1007A00095E00E94A41140E060E08DEE95E00E948B
:1007B000B21163EA72E08DEE95E00E94D80841E044
:1007C00060E08DEE95E00E94B21161EB72E08DEE7B
:1007D00095E00E94D80860ED77E080E090E00E940C
:1007E0000E0B8DEE95E00E94A411CBE068C04897F7
:1007F000A1F56EEC71E088E196E00E94DE086EE9FA
:1008000072E088E196E00E94DE088DEE95E00E949D
:10081000A41140E060E08DEE95E00E94B21163EA21
:1008200072E08DEE95E00E94D80841E060E08DEE28
:1008300095E00E94B21161EB72E08DEE95E00E94AE
:10084000D80860ED77E080E090E00E940E0B8DEE1E
:1008500095E00E94A411C8E132C062E672E088E12E
:1008600096E00E94DE086EE972E088E196E00E9460
:10087000DE088DEE95E00E94A41140E060E08DEE70
:1008800095E00E94B21163EA72E08DEE95E00E945D
:10089000D80841E060E08DEE95E00E94B21161EB76
:1008A00072E08DEE95E00E94D80860ED77E080E080
:1008B00090E00E940E0B8DEE95E00E94A4118C2F0B
:1008C000DF91CF9108950F931F93CF93DF9300D0C3
:1008D00000D000D0CDB7DEB78FEB95E00E944E0F71
:1008E000182F813009F4ABC070F0823009F49FC03A
:1008F000833009F0ACC064E572E088E196E00E94C4
:10090000DE0883E024C168E472E088E196E00E949A
:10091000DE0861E08FEB95E00E948C0F182F863087
:1009200009F445C030F4882391F0813009F487C080
:100930008EC0873009F443C0853109F088C06DEB63
:1009400072E088E196E00E94DE0885E100C160E780
:1009500072E088E196E00E94DE088FEB95E00E944D
:100960009910182F811133C066E973E088E196E091
:100970000E94DE086BEA73E088E196E00E94DE08E0
:100980006091BF057091C0054AE050E088E196E0B3
:100990000E9465098DEE95E00E94A41140E060E0A0
:1009A0008DEE95E00E94B21100E117E239C06EE8C9
:1009B00072E088E196E00E94DE0886E0C8C06DEB38
:1009C00072E088E196E00E94DE0887E0C0C08130D6
:1009D000B1F18930E1F566EB73E088E196E00E94C1
:1009E000DE088DEE95E00E94A41140E060E08DEEFF
:1009F00095E00E94B2116BEC73E08DEE95E00E94E1
:100A0000D80868EE73E080E090E00E940E0B8DEE57
:100A100095E00E94A41189E09AC001501109F9F0F3
:100A200088E196E00E94A706892BB9F318C06BED08
:100A300073E088E196E00E94DE0882E088C068E901
:100A400071E088E196E00E94DE0881E080C062E605
:100A500072E088E196E00E94DE08812F78C068E1AC
:100A600076E0CE0101960E94790ABE016F5F7F4F4A
:100A700087EE95E00E94E50CCE0101960E94250CC0
:100A80008091EB059091EC0560E170E0681B790BBB
:100A90007695679540E08DEE95E00E94B21167EE85
:100AA00075E08DEE95E00E94CA0841E060E08DEEB1
:100AB00095E00E94B2116EEE73E08DEE95E00E941B
:100AC000D80861E0809108010E94F50B61E08091F7
:100AD00006010E94F50B68EE73E080E090E00E9452
:100AE0000E0B8DEE95E00E94A41140E060E08DEECB
:100AF00095E00E94B2116EEF73E08DEE95E00E94DA
:100B0000D80868EE73E080E090E00E940E0B60E091
:100B1000809108010E94F50B60E0809106010E941F
:100B2000F50B8DEE95E00E94A4116DE074E088E174
:100B300096E00E94D8086091C1057091C2054AE014
:100B400050E088E196E00E9465098091BF052696F5
:100B50000FB6F894DEBF0FBECDBFDF91CF911F91CE
:100B60000F9108951F93CF93DF9300D000D000D052
:100B7000CDB7DEB788E196E00E94A706892B89F5FC
:100B800062E274E088E196E00E94DE0888E196E087
:100B90000E94A706892B29F58DEE95E00E94A411ED
:100BA00040E060E08DEE95E00E94B2116EE374E0EB
:100BB0008DEE95E00E94D80841E060E08DEE95E072
:100BC0000E94B2116CE474E08DEE95E00E94D808AA
:100BD0000E94630462E370E080E090E00E940E0BEC
:100BE000D5CF68E176E0CE0101960E94790A68E2ED
:100BF00072E0CE0101960E94320D882309F464C090
:100C00008DEE95E00E94A41140E060E08DEE95E04D
:100C10000E94B2116BE574E08DEE95E00E94D80859
:100C20006AE070E080E090E00E940E0B6BE674E0FA
:100C300088E196E00E94DE0864E670E080E090E0E3
:100C40000E940E0B8DEE95E00E94A41140E060E042
:100C50008DEE95E00E94B21165E774E08DEE95E0AF
:100C60000E94D8086AE070E080E090E00E940E0BDD
:100C700066E874E088E196E00E94DE0865EA74E0C8
:100C800088E196E00E94DE0860EF74E088E196E07B
:100C90000E94DE080E947D018093BE05882309F42E
:100CA00048C067EF74E088E196E00E94D8084AE007
:100CB00050E06091BE0588E196E00E944D090E94D7
:100CC0008D018823E1F335C066E075E0CE01019621
:100CD0000E94320D882369F16DE075E088E196E0AD
:100CE0000E94DE0868EE73E080E090E00E940E0B48
:100CF00068E175E088E196E00E94DE0866E575E04F
:100D000088E196E00E94DE080E947D01182F88236A
:100D100081F06FE575E088E196E00E94D8084AE02E
:100D200050E0612F88E196E00E944D09812F0E94DA
:100D30002001CE0101960E94250C26960FB6F8944C
:100D4000DEBF0FBECDBFDF91CF911F910895FC0193
:100D5000918D228D892F90E0805C9F4F821B91099D
:100D60008F7399270895FC01918D828D981731F02A
:100D7000828DE80FF11D858D90E008958FEF9FEF34
:100D80000895FC01918D828D981761F0828DDF01AD
:100D9000A80FB11D5D968C91928D9F5F9F73928F6E
:100DA00090E008958FEF9FEF0895FC01538D448DDF
:100DB000252F30E0842F90E0821B930B541710F006
:100DC000CF9608950197089584E498E0892B49F01F
:100DD00080E090E0892B29F00E94440881110C9456
:100DE00000000895FC01848DDF01A80FB11DA35AF6
:100DF000BF4F2C91848D90E001968F739927848F3B
:100E0000A689B7892C93A089B1898C91837080645D
:100E10008C93938D848D981306C00288F389E02DFE
:100E200080818F7D80830895EF92FF920F931F93AF
:100E3000CF93DF93EC0181E0888F9B8D8C8D98138D
:100E400005C0E889F989808185FD26C0F62E0B8DC5
:100E500010E00F5F1F4F0F731127E02E8C8DE812EB
:100E60000CC00FB607FCFACFE889F989808185FFAD
:100E7000F5CFCE010E94F206F1CF8B8DFE01E80F77
:100E8000F11DE35AFF4FF0829FB7F8940B8FEA8968
:100E9000FB89808180620AC09FB7F894EE89FF8940
:100EA0006083E889F98980818370806480839FBF33
:100EB00081E090E0DF91CF911F910F91FF90EF9033
:100EC0000895CF93DF93EC01888D8823C9F0EA89D8
:100ED000FB89808185FD05C0A889B9898C9186FD33
:100EE0000FC00FB607FCF5CF808185FFF2CFA88930
:100EF000B9898C9185FFEDCFCE010E94F206E7CF34
:100F0000DF91CF910895CF92DF92EF92FF921F93DE
:100F1000CF93DF93EC016A017B01122FE889F989F5
:100F200082E080834115514E61057105B1F060E0AA
:100F300079E08DE390E0A70196010E94B017DA01F5
:100F4000C9010197A109B109B695A795979587950C
:100F50009C01211580E13807A8F0E889F989108201
:100F600060E874E88EE190E0A70196010E94B01756
:100F7000DA01C9010197A109B109B695A79597951D
:100F800087959C01EC85FD853083EE85FF85208368
:100F9000188EEC89FD891083EA89FB898081806144
:100FA0008083EA89FB89808188608083EA89FB8964
:100FB000808180688083EA89FB8980818F7D80833E
:100FC000DF91CF911F91FF90EF90DF90CF90089528
:100FD00080E090E0089508951F920F920FB60F924F
:100FE00011242F938F939F93EF93FF93E091280603
:100FF000F09129068081E0912E06F0912F0682FD66
:1010000012C09081809131068F5F8F7320913206DC
:10101000821751F0E0913106F0E0E85EF94F958FCC
:101020008093310601C08081FF91EF919F918F9154
:101030002F910F900FBE0F901F9018951F920F9237
:101040000FB60F9211242F933F934F935F936F939B
:101050007F938F939F93AF93BF93EF93FF9388E119
:1010600096E00E94F206FF91EF91BF91AF919F91A0
:101070008F917F916F915F914F913F912F910F9041
:101080000FBE0F901F90189588E196E00E94A7066A
:1010900021E0892B09F420E0822F0895E8E1F6E0B1
:1010A0001382128288EE93E0A0E0B0E084839583FF
:1010B000A683B78381E795E09183808385EC90E0F8
:1010C0009587848784EC90E09787868780EC90E012
:1010D000918B808B81EC90E0938B828B82EC90E003
:1010E000958B848B86EC90E0978B868B118E128E7D
:1010F000138E148E089508950E94550B0E947B084C
:101100000E949800C4EED6E00E94B2052097E1F359
:101110000E94E406F9CFCF92DF92EF92FF920F93F5
:101120001F93CF93DF936C017A018B01C0E0D0E075
:10113000CE15DF0581F0D8016D918D01D601ED91BD
:10114000FC910190F081E02DC6010995892B11F0E9
:101150002196EECF7E01C701DF91CF911F910F91B4
:10116000FF90EF90DF90CF9008956115710579F0B1
:10117000FB0101900020E9F73197AF01461B570BA7
:10118000DC01ED91FC910280F381E02D099480E077
:1011900090E00895DB0114964D915C9115976D9147
:1011A0007C91DC01ED91FC910280F381E02D0994AA
:1011B0000C94B5086FE775E00C94B5080F931F9376
:1011C000CF93DF93EC010E94B5088C01CE010E9401
:1011D000DA08800F911FDF91CF911F910F91089531
:1011E0008F929F92AF92BF92EF92FF920F931F93B5
:1011F000CF93DF93CDB7DEB7A1970FB6F894DEBFDC
:101200000FBECDBF7C01FA01CB0119A2223008F438
:101210002AE08E010F5D1F4F822E912CA12CB12C44
:10122000BF01A50194010E94B017F901CA01015044
:1012300011096A3010F4605D01C0695CD8016C93DB
:10124000232B242B252B61F7B801C7010E94B50879
:10125000A1960FB6F894DEBF0FBECDBFDF91CF9140
:101260001F910F91FF90EF90BF90AF909F908F9044
:1012700008952115310541F4DC01ED91FC910190B7
:10128000F081E02D642F09940C94F0089A01462F08
:1012900050E060E070E00C9439090F931F93CF93F6
:1012A000DF93EC010E9446098C01CE010E94DA080E
:1012B000800F911FDF91CF911F910F9108959A0197
:1012C000AB0160E070E00C9439090F931F93CF934A
:1012D000DF93EC010E945F098C01CE010E94DA08C5
:1012E000800F911FDF91CF911F910F9108950F9360
:1012F0001F93CF93DF93EC010E94DD0A6887798703
:101300008A879B87E881F9810284F385E02DCE01ED
:10131000099597FF17C00E94DD0A088519852A855F
:101320003B85DC01CB01801B910BA20BB30B0C8125
:101330001D812E813F8180179107A207B30710F30B
:101340008FEF9FEFDF91CF911F910F9108950F9332
:101350001F93CF93DF93EC010E94DD0A68877987A2
:101360008A879B87E881F9810484F585E02DCE0189
:10137000099597FF17C00E94DD0A088519852A85FF
:101380003B85DC01CB01801B910BA20BB30B0C81C5
:101390001D812E813F8180179107A207B30710F3AB
:1013A0008FEF9FEFDF91CF911F910F9108950F93D2
:1013B0001F93CF93DF93EC01162F042FCE010E94D1
:1013C000A70997FD2BC08D32910509F19C0120538F
:1013D00031092A30310510F1002319F08E329105C0
:1013E000C1F01130C9F0123051F48D30910539F04F
:1013F00024F40997029718F00FC0809769F4E881E8
:10140000F9810284F385E02DCE010995D7CF8DE2D5
:1014100001C08EE290E002C08FEF9FEFDF91CF918D
:101420001F910F910895BF92CF92DF92EF92FF929A
:101430000F931F93CF93DF938C01C42F40E00E9442
:10144000D709FC0197FD45C0C12CD12C7601B12CE8
:10145000D0E0EC17FD0709F1ED32F105E1F0CF0125
:10146000C0970A97D0F4AAE0B0E0A70196010E94C5
:10147000F7176F01FF0FEE08FF08DC01CB018C0DA1
:101480009D1DAE1DBF1D6C017D0120E3C21AD10858
:10149000E108F10802C0BB24B394D801ED91FC919E
:1014A0000284F385E02DC8010995C8010E94A709AF
:1014B000FC01C0970A9768F2CE17DF0751F2BB20F4
:1014C00061F066277727CB016C197D098E099F098A
:1014D00006C060E070E0CB0102C0C701B601DF9139
:1014E000CF911F910F91FF90EF90DF90CF90BF9021
:1014F00008950F931F93CF93DF93EC018B0161E865
:1015000075E00E94930CC8010E94770997FD05C001
:10151000682FCE010E941F0DF6CFCE01DF91CF9133
:101520001F910F9108951F920F920FB60F921124E1
:101530002F933F938F939F93AF93BF938091B60662
:101540009091B706A091B806B091B9063091B50652
:1015500023E0230F2D3720F40196A11DB11D05C0F6
:1015600026E8230F0296A11DB11D2093B506809396
:10157000B6069093B706A093B806B093B9068091CB
:10158000BA069091BB06A091BC06B091BD0601962B
:10159000A11DB11D8093BA069093BB06A093BC0613
:1015A000B093BD06BF91AF919F918F913F912F91C5
:1015B0000F900FBE0F901F9018952FB7F894609161
:1015C000B6067091B7068091B8069091B9062FBF04
:1015D00008953FB7F8948091BA069091BB06A09108
:1015E000BC06B091BD0626B5A89B05C02F3F19F0DB
:1015F0000196A11DB11D3FBFBA2FA92F982F882793
:10160000820F911DA11DB11DBC01CD0142E0660FED
:10161000771F881F991F4A95D1F708958F929F923F
:10162000AF92BF92CF92DF92EF92FF926B017C015B
:101630000E94E90A4B015C01C114D104E104F104E8
:1016400001F10E94B8150E94E90ADC01CB0188195A
:101650009909AA09BB09883E9340A105B10560F329
:1016600021E0C21AD108E108F10888EE880E83E073
:10167000981EA11CB11CC114D104E104F10419F796
:10168000DBCFFF90EF90DF90CF90BF90AF909F9017
:101690008F9008958230910538F0880F991F880F38
:1016A000991F05970197F1F70895789484B58260A2
:1016B00084BD84B5816084BD85B5826085BD85B5F6
:1016C000816085BDEEE6F0E0808181608083E1E8A5
:1016D000F0E01082808182608083808181608083DD
:1016E000E0E8F0E0808181608083E1EBF0E08081E0
:1016F00084608083E0EBF0E0808181608083EAE7B2
:10170000F0E080818460808380818260808380813A
:10171000816080838081806880831092C1000895F9
:10172000833081F028F4813099F08230A1F008955F
:101730008730A9F08830B9F08430D1F480918000EE
:101740008F7D03C0809180008F7780938000089503
:1017500084B58F7702C084B58F7D84BD0895809154
:10176000B0008F7703C08091B0008F7D8093B00070
:101770000895CF93DF9390E0FC01E257FF4F24914F
:10178000FC01EE55FF4F8491882361F190E0880FB2
:10179000991FFC01E653FF4FC591D491FC01E05421
:1017A000FF4FA591B491611109C09FB7F89488814A
:1017B000209582238883EC912E230BC0623061F444
:1017C0009FB7F8948881322F309583238883EC91DA
:1017D0002E2B2C939FBF06C08FB7F894E8812E2B39
:1017E00028838FBFDF91CF9108951F93CF93DF930D
:1017F000282F30E0F901E658FF4F8491F901E257B4
:10180000FF4FD491F901EE55FF4FC491CC23C1F0A5
:10181000162F81110E94900BEC2FF0E0EE0FFF1FAE
:10182000E054FF4FA591B4919FB7F894111104C0F3
:101830008C91D095D82302C0EC91DE2BDC939FBF16
:10184000DF91CF911F9108950895FC0180819181CE
:101850000C94BD18CF93DF93EC0188819981009798
:1018600011F00E94BD18198218821D821C821B82F1
:101870001A82DF91CF9108950F931F93CF93DF9337
:10188000EC018B016F5F7F4F888199810E9446191F
:10189000009731F0998388831B830A8381E001C01C
:1018A00080E0DF91CF911F910F910895CF93DF9347
:1018B000EC0188819981892B29F08A819B81861787
:1018C000970760F4CE010E943C0C882341F08C8184
:1018D0009D81892B19F4E881F981108281E0DF91E3
:1018E000CF910895EF92FF920F931F93CF93DF93C1
:1018F000EC017B018A01BA010E94560C811104C0DF
:10190000CE010E942A0C07C01D830C83B701888179
:1019100099810E941E1ACE01DF91CF911F910F91E4
:10192000FF90EF900895FC011182108213821282C1
:10193000158214826115710551F0FB0101900020A0
:10194000E9F73197AF01461B570B0C94720C0895C1
:101950000F931F93CF93DF938C01EB01FC018081E8
:1019600091810097D1F0688179816115710599F0B5
:1019700024E23CE0232B79F0428153812C813D818C
:101980004217530740F00E941E1A8C819D81F80176
:101990009583848313C00E94BD1888819981F801C2
:1019A000918380838A819B81938382838C819D81B3
:1019B00095838483198218821B821A821D821C825D
:1019C000DF91CF911F910F910895CF93DF93EC0199
:1019D0008617970711F00E94A80CCE01DF91CF91D6
:1019E0000895EF92FF920F931F93CF93DF936115AA
:1019F000710511F480E01CC041155105C1F07B0157
:101A0000EC018C819D818A01080F191FB801CE015C
:101A10000E94560C882371F3288139818C819D8125
:101A2000B701820F931F0E941E1A1D830C8381E051
:101A3000DF91CF911F910F91FF90EF900895CF9379
:101A4000DF9300D0CDB7DEB769831A8241E050E062
:101A5000BE016F5F7F4F0E94F10C0F900F90DF91DE
:101A6000CF910895FC0124813581232B31F421E0AD
:101A700061157105A1F0FB0108C0FC018081918115
:101A80006115710531F421E0FC018081882339F072
:101A900005C00E94151A21E0892B09F020E0822F51
:101AA0000895DC0181E09FEE11969C938E9316962B
:101AB0006C93169718965C934E9317978FEF129628
:101AC0008C93129713968C93139714968C93149768
:101AD00015968C93159719964034510520F4B90149
:101AE000CD010C940C1A80E4F90101900D928A95B5
:101AF000E1F70895FC0126833783408751878FEFF4
:101B00009FEFDC0182879387A487B58717A216A26F
:101B100075A364A373A362A30895CF92DF92EF929B
:101B2000FF92CF93DF93EC016A017B0168EE73E0D3
:101B300080E090E00E940E0B8EA19FA1009729F0FB
:101B400026E0B701A6010E9483078CA19DA1009702
:101B500051F0B701A601DF91CF91FF90EF90DF9098
:101B6000CF900C942614DF91CF91FF90EF90DF90EF
:101B7000CF900895BF92CF92DF92EF92FF920F9392
:101B80001F93CF93DF93EC018B018AA19BA1DB0113
:101B900011966C91DC01ED91FC910190F081E02DAA
:101BA00009958AA19BA1DC01ED91FC910190F08146
:101BB000E02DD8016C9109958AA19BA1DC01ED91E2
:101BC000FC910190F081E02DD80112966C9109955D
:101BD0008AA19BA1DC01ED91FC910190F081E02DA7
:101BE000D80113966C9109958AA19BA1DC01ED9116
:101BF000FC910190F081E02DD80114966C9109952B
:101C00008AA19BA1DC01ED91FC910190F081E02D76
:101C1000D80115966C9109958AA19BA1DC01ED91E3
:101C2000FC910190F081E02DD80116966C910995F8
:101C3000F801C780D084F2E0CF0ED11C8AA19BA10D
:101C4000ED2CFF24DC01ED91FC910190F081E02D61
:101C50006E2D09958AA19BA1DC01ED91FC9101906B
:101C6000F081E02D6C2D0995EC0CF11CF8018681BA
:101C7000E80EF11CB12CCB2CD12CD80117962D914C
:101C80003C9118978AA19BA1C216D30690F4C00E6E
:101C9000D11EDC01ED91FC910190F081E02DD60187
:101CA00019966C910995F6018185E80EF11CB394A3
:101CB000E2CFDC01ED91FC910190F081E02D6F2DE0
:101CC00009958AA19BA1DC01ED91FC910190F08125
:101CD000E02D6E2DDF91CF911F910F91FF90EF902E
:101CE000DF90CF90BF900994AF92BF92CF92DF92D6
:101CF000EF92FF920F931F93CF93DF936C01EB0151
:101D00005A01E12CF12C00E010E0D60192968D9161
:101D10009C919397DC01ED91FC910084F185E02D7D
:101D20000995892B71F461E070E080E090E00E94F9
:101D30000E0BBFEFEB1AFB0AEA14FB0430F38FEF34
:101D400045C0F60182A193A1DC01ED91FC910284D2
:101D5000F385E02D09950930110538F5F801EC5CA3
:101D6000FF4F0C94F1178F3E81F61882898328C0AB
:101D700028813981F901E82BCF019983888381304B
:101D80009F4EF1F020C0FE01E00FF11F808318C0CC
:101D90008E8316C01F82888713C02F813885A901C2
:101DA000482BCA0198878F830BC0FE01E00FF11FFB
:101DB00080832F813885C80108978217930729F0FF
:101DC0000F5F1F4FA2CF8EEF01C080E0DF91CF9158
:101DD0001F910F91FF90EF90DF90CF90BF90AF9049
:101DE00008950F931F93CF93DF93CDB7DEB7CE54F3
:101DF000D1090FB6F894DEBF0FBECDBF8C01FE0136
:101E0000E65BFF4F85E0DF011D928A95E9F783E1EC
:101E10008083D80116968C91169717969C911797E8
:101E200018962C91189719963C91318322839383AD
:101E300084839F0145E050E061E0CE0101960E945D
:101E4000510DBE016F5F7F4FC8010E94BA0D48EE71
:101E500053E0BE016F5F7F4FC8010E94740E811175
:101E600009C08F81873031F481E09A85911103C0D8
:101E700080E001C081E0C25BDF4F0FB6F894DEBFA7
:101E80000FBECDBFDF91CF911F910F9108950E949A
:101E9000F10E91E0811190E0892F08950F931F9327
:101EA000CF93DF93CDB7DEB7CA54D1090FB6F894FC
:101EB000DEBF0FBECDBF8C0181E02B968FAF2B977D
:101EC0009E01265B3F4F41E050E061E0CE0101966C
:101ED0000E94510DBE016F5F7F4FC8010E94BA0D75
:101EE00048EE53E0BE016F5F7F4FC8010E94740E41
:101EF000811105C08F81873011F48A8501C081E08E
:101F0000C65BDF4F0FB6F894DEBF0FBECDBFDF91CB
:101F1000CF911F910F9108950F931F93CF93DF934C
:101F2000CDB7DEB7CB54D1090FB6F894DEBF0FBEE4
:101F3000CDBF8C0182E02B968FAF2B972C966FAF85
:101F40002C979E01265B3F4F42E050E061E0CE01BE
:101F500001960E94510DBE016F5F7F4FC8010E9424
:101F6000BA0D48EE53E0BE016F5F7F4FC8010E947B
:101F7000740E811105C08F81873011F48A8501C0EC
:101F800081E0C55BDF4F0FB6F894DEBF0FBECDBF5B
:101F9000DF91CF911F910F9108950F931F93CF93CE
:101FA000DF93CDB7DEB7CA54D1090FB6F894DEBFC0
:101FB0000FBECDBF8C0185E02B968FAF2B979E0176
:101FC000265B3F4F41E050E061E0CE0101960E9468
:101FD000510DBE016F5F7F4FC8010E94BA0D48EEE0
:101FE00053E0BE016F5F7F4FC8010E94740E8111E4
:101FF00005C08F81873011F48A8501C081E0C65BFE
:10200000DF4F0FB6F894DEBF0FBECDBFDF91CF918B
:102010001F910F9108950F931F93CF93DF93CDB727
:10202000DEB7CD54D1090FB6F894DEBF0FBECDBFD9
:102030008C0186E02B968FAF2B9781E02C968FAF8B
:102040002C972D967FAF2D972E966FAF2E979E01D2
:10205000265B3F4F44E050E061E0CE0101960E94D4
:10206000510DBE016F5F7F4FC8010E94BA0D48EE4F
:1020700053E0BE016F5F7F4FC8010E94740E811153
:1020800005C08F81873011F48A8501C081E0C35B70
:10209000DF4F0FB6F894DEBF0FBECDBFDF91CF91FB
:1020A0001F910F9108950F931F93CF93DF93CDB797
:1020B000DEB7CE54D1090FB6F894DEBF0FBECDBF48
:1020C0008C01FE01E65BFF4F85E0DF011D928A95E2
:1020D000E9F78CE0808381E08483718362839F01D0
:1020E00045E050E061E0CE0101960E94510DBE0135
:1020F0006F5F7F4FC8010E94BA0D48EE53E0BE01EA
:102100006F5F7F4FC8010E94740E811105C08F81DF
:10211000873011F48A8501C081E0C25BDF4F0FB6C2
:10212000F894DEBF0FBECDBFDF91CF911F910F910D
:1021300008950F931F93CF93DF93CDB7DEB7CF549E
:10214000D1090FB6F894DEBF0FBECDBF8C0186E07B
:10215000EAE0F1E0DE01A65BBF4F01900D928A95A7
:10216000E1F79E01265B3F4F46E050E061E0CE0183
:1021700001960E94510DBE016F5F7F4FC8010E9402
:10218000BA0D48EE53E0BE016F5F7F4FC8010E9459
:10219000740E811114C08F81873089F48B859C85E2
:1021A000982789279827F801918380838D859E85BC
:1021B000982789279827938382838A8501C081E0A5
:1021C000C15BDF4F0FB6F894DEBF0FBECDBFDF910E
:1021D000CF911F910F9108950F931F93CF93DF938A
:1021E000CDB7DEB7CA54D1090FB6F894DEBF0FBE23
:1021F000CDBF8C018DE12B968FAF2B979E01265B77
:102200003F4F41E050E061E0CE0101960E94510D48
:10221000BE016F5F7F4FC8010E94BA0D48EE53E0C8
:10222000BE016F5F7F4FC8010E94740E81110DC007
:102230008F81873051F48B859C8598278927982733
:10224000F801958384838A8501C081E0C65BDF4FF6
:102250000FB6F894DEBF0FBECDBFDF91CF911F91B7
:102260000F9108950F93FC011382128282E995E089
:1022700091838083648340872187028788E08387F6
:102280000F9108951F93CF93DF93EC01162F6C816C
:1022900082E097E00E9494156B85612B82E097E0C5
:1022A0000E94431582E097E0DF91CF911F910C943B
:1022B000B115FC01138660E00C94421128E0FC018A
:1022C000238760E00C9442110F931F93CF938C01EE
:1022D000C62F64600E94421181E090E00E944A0B88
:1022E0006C2F6B7FC8010E94421182E390E0CF9176
:1022F0001F910F910C944A0B1F93CF93DF93EC0126
:10230000162F0E944211612FCE01DF91CF911F91B4
:102310000C9464110F931F93CF93DF938C01C62FFE
:10232000D42F607F642B0E947C1180E1C89FB00194
:1023300011246D2BC801DF91CF911F910F910C9447
:102340007C1140E00C948A1161E00E94A11180EDA3
:1023500097E00C944A0B62E00E94A11180ED97E097
:102360000C944A0BCF93DF93CDB7DEB728970FB607
:10237000F894DEBF0FBECDBF9C0188E0E0E1F1E044
:10238000DE01119601900D928A95E1F7F9018185A0
:10239000841710F44FEF480FFE013196E40FF11D42
:1023A000E40FF11D9081690F6068C90128960FB68E
:1023B000F894DEBF0FBECDBFDF91CF910C94A11179
:1023C000FC016681262F246026836C600C94A11189
:1023D00041E00E948A1181E090E00895CF93DF935D
:1023E000EC0182E097E00E9482151D82898582308F
:1023F00010F098E09D839A85992329F0813019F493
:102400008D8184608D8362E370E080E090E00E94C3
:102410000E0B6B85CE010E94421168EE73E080E0E6
:1024200090E00E940E0B60E3CE010E947C1184E9D3
:1024300091E10E944A0B60E3CE010E947C1184E985
:1024400091E10E944A0B60E3CE010E947C1186E973
:1024500090E00E944A0B60E2CE010E947C116D81E7
:102460006062CE010E94A11184E08E83CE010E94A1
:10247000E011CE010E94A41182E08F8366E0CE01BC
:102480000E94A111CE01DF91CF910C94AB1120914C
:1024900000073091010728173907B9F49091BE065B
:1024A0008091BF06981789F0E091BE06F0E0E054F5
:1024B000F94F80812091BE0630E02F5F3F4F2F7390
:1024C00033272093BE0690E008958FEF9FEF089585
:1024D0001F93CF93DF93DC015C968D919C915D9768
:1024E000009739F421E030E013963C932E93129735
:1024F0003BC05196ED91FC91529750962C9150977C
:10250000322F30951FB75E964C915E97742F727084
:1025100041FD6095F8944081772311F0422B01C072
:1025200043234083EC012197F1F748E0508160FF9D
:1025300002C0522B01C053235083EC012197F1F7C5
:102540006695415099F78081772319F08323808322
:1025500002C0282B20831FBF5C968D919C915D97B4
:102560000197F1F781E090E0DF91CF911F910895FD
:10257000089520910007309101072817390771F459
:102580009091BE068091BF06981741F0E091BE067B
:10259000F0E0E054F94F808190E008958FEF9FEFD5
:1025A000089520910007309101072817390771F429
:1025B0008091BF062091BE0690E0805C9F4F821BF9
:1025C000910960E470E00E949C17089580E090E01B
:1025D0000895E0910007F0910107E817F90769F401
:1025E000A389B4899C918589809589238C931092C5
:1025F00001071092000781E0089580E00895CF93CD
:10260000DF93EC018A8D9B8D892BF1F0809100077F
:1026100090910107C817D907B9F0009711F00E94EF
:10262000E9128E8D8E7F8E8F1092BF061092BE069D
:10263000D0930107C0930007EB89FC8990818D89B5
:10264000892B808381E001C080E0DF91CF910895E4
:102650001F920F920FB60F9211242F933F934F9317
:102660005F936F937F938F939F93AF93BF93EF93FA
:10267000FF93E0910007F0910107309709F451C0F2
:10268000968DA685B785858591FF04C09C91892389
:1026900029F447C09C91892309F043C0A389B489D8
:1026A0009C918589809589238C9386899789019748
:1026B000F1F7608D718DA685B785558538E020E0EE
:1026C000CB010197F1F7822F90E095958795282F00
:1026D0004C91452309F02068315091F7868D81FD9A
:1026E00020958091BF0690E001968F7399273091D5
:1026F000BE06381749F0A091BF06B0E0A054B94F0C
:102700002C938093BF0603C0868D8160868F828D57
:10271000938D0197F1F7A389B4899C918589892BC1
:102720008C93FF91EF91BF91AF919F918F917F918A
:102730006F915F914F913F912F910F900FBE0F902E
:102740001F9018952EE935E0FC01318320830C940D
:10275000E9121F93CF93DF93EC01162F6E8D6695D0
:10276000617081E06827812F0E94F50B61E0812F65
:102770000E94B90B812F90E0FC01E257FF4FE491DA
:10278000E88BFC01EE55FF4FE491F0E0EE0FFF1FE8
:10279000E054FF4F859194919A8B898BDF91CF9173
:1027A0001F9108951F93CF93DF93EC01162F60E0E4
:1027B000812F0E94B90B8E8D81FD04C061E0812FB5
:1027C0000E94F50B1C87812F90E0FC01E257FF4F20
:1027D000E491ED87FC01EE55FF4FE491F0E0EE0F40
:1027E000FF1FEA54FF4F859194919F878E87DF9159
:1027F000CF911F9108951F93CF93DF93EC01162F74
:102800001B821A8288EE93E0A0E0B0E08C839D8367
:10281000AE83BF838EE995E0998388831F8A1E8AE1
:10282000198E188E1B8E1A8E1D8E1C8E8E8D8E7F8D
:1028300020FB81F98E8F642FCE010E94A913612F96
:10284000CE01DF91CF911F910C94D213CF93DF93E0
:10285000EC019A01AB011B8E1A8E198E188E1F8AFD
:102860001E8A60E079E08DE390E00E94D217F901C2
:102870002430310518F0C901039702C081E090E0CF
:102880009D8F8C8F6C85663108F069C0C901969563
:1028900087958431910510F0439702C081E090E064
:1028A0009F8B8E8B369718F0C901059702C081E087
:1028B00090E0998F888FC901880F991F280F391FC1
:1028C00036952795369527952D30310518F02C50E3
:1028D000310902C021E030E03B8F2A8F90916800DF
:1028E000683050F021E06E3008F420E081E001C053
:1028F000880F2A95EAF701C084E0892B809368004D
:102900009C85983038F09E3040F0963148F020E0B9
:1029100030E008C02DE630E005C02BE630E002C014
:102920002CE630E03C8B2B8B983030F481E001C0FA
:10293000880F9A95EAF70EC0292F30E09E3018F4E0
:102940002850310902C02E50310981E001C0880FA2
:102950002A95EAF78D8B8C8D9D8D0197F1F7CE012D
:10296000DF91CF910C94FF128091360790E0209177
:102970003707821B91090895909137078091360798
:10298000981750F4E92FF0E0E85CF84F208130E030
:102990009F5F9093370702C02FEF3FEFC901089563
:1029A000E091370780913607E81730F4F0E0E85CF3
:1029B000F84F808190E008958FEF9FEF089508957C
:1029C000CF93DF93EC01E0910E07F0910F07309762
:1029D000F1F090913707809136079817C0F090E09A
:1029E000292F30E02617370754F4DE01A20FB31F5A
:1029F0004C91D901A85CB84F4C939F5FF1CF1092D6
:102A0000370760933607CB01DF91CF910994DF91AF
:102A1000CF910895E0911007F0911107309729F0B8
:102A2000109214071092130709940895CF92DF9221
:102A3000EF92FF920F931F93CF93DF937C01CB0113
:102A40008A0120911207222389F0EB016B01C40E49
:102A5000D51ECC15DD0569F06991D701ED91FC918A
:102A60000190F081E02DC7010995F3CF642F0E94FA
:102A70002D16C801DF91CF911F910F91FF90EF901C
:102A8000DF90CF900895CF93DF931F92CDB7DEB73D
:102A90006983209112072223D1F02091130720325D
:102AA00040F021E030E0FC013383228380E090E0BD
:102AB00015C080911407E82FF0E0EB5EF84F998184
:102AC00090838F5F809314078093130705C061E0A4
:102AD000CE0101960E942D1681E090E00F90DF91CB
:102AE000CF910895FC011382128288EE93E0A0E05A
:102AF000B0E084839583A683B78380EB95E09183D0
:102B000080830895109237071092360710921407A9
:102B1000109213070E94B9158AE095E10E945A1697
:102B200080EE94E10C94551681E080931207609337
:102B30003507109214071092130708950F93062F6C
:102B400021E04091130765E177E0809135070E940D
:102B5000D7151092140710921307109212070F91B5
:102B6000089561E00C949E1582E097E00C94721534
:102B700008951092C50781E08093C3071092C207A1
:102B800061E082E10E94F50B61E083E10E94F50BB8
:102B9000E9EBF0E080818E7F808380818D7F808370
:102BA00088E48093B80085E48093BC0008950F9377
:102BB000413208F04AC09091C5079111FCCF32E034
:102BC0003093C5070093C3073FEF30935807109227
:102BD0009D0740939C07562FAEE9B7E0FB013E2FBF
:102BE000351B341718F431913D93F9CF1092C40777
:102BF0003091C407880F832B8093C4078091C2074C
:102C0000813061F41092C2078091C4078093BB00A9
:102C10008091BC0083FDF8CF85EC01C085EE8093E8
:102C2000BC00222321F08091C5078230D1F380912E
:102C300058078F3F79F080915807803241F080919A
:102C40005807803331F094E005C091E003C092E072
:102C500001C093E0892F0F91089540917A07262FA4
:102C600030E0240F311D21323105DCF42091C507FD
:102C70002430C9F4FC0180E090E0861758F43091CC
:102C80007A072191DC01A458B84FA30FB11D2C93F2
:102C90000196F3CF80917A07680F60937A0780E0FE
:102CA000089581E0089582E008959093BF0780938E
:102CB000BE0708959093C1078093C007089585EDDE
:102CC0008093BC008091BC0084FDFCCF1092C507AE
:102CD000089585EC8093BC001092C50708951F925B
:102CE0000F920FB60F9211242F933F934F935F9340
:102CF0006F937F938F939F93AF93BF93EF93FF93C4
:102D00008091B900887F803609F49EC078F58832BA
:102D100009F45DC090F4803109F456C038F488237A
:102D200009F4F5C0883009F44FC0F5C0883109F4C2
:102D30004EC0803209F45FC0EEC0803409F46AC02E
:102D400058F4803309F457C0883309F0E4C0809305
:102D500058070E946916DFC0803509F44FC08835D6
:102D600009F45DC0883409F0D6C0D3C0883909F4AD
:102D7000C4C0A8F4883709F467C038F4883609F469
:102D800063C0803709F460C0C6C0883809F4B5C094
:102D9000803909F45FC0803809F0BDC05BC0803B5A
:102DA00009F483C038F4803A09F466C0883A09F41B
:102DB0007CC0B1C0803C09F4A4C0883C09F4A1C027
:102DC000883B09F487C0A7C08091C40710C09091C8
:102DD0009D0780919C07981770F5E0919D0781E011
:102DE0008E0F80939D07F0E0E256F84F808180932C
:102DF000BB0085EC83C0809358078BC0E0919D0792
:102E000081E08E0F80939D078091BB00F0E0E25639
:102E1000F84F808390919D0780919C076BC0E09153
:102E20009D0781E08E0F80939D078091BB00F0E0AD
:102E3000E256F84F80838091C30781116AC081E018
:102E40008093C20784EA5EC083E08093C507109236
:102E50005907CFCF80915907803208F04EC0E091DA
:102E6000590781E08E0F809359078091BB00F0E0F5
:102E7000E65AF84F8083BDCF0E94691680915907AA
:102E8000803230F4E0915907F0E0E65AF84F1082B2
:102E90006091590770E0E091BE07F091BF078AE5A5
:102EA00097E009951092590736C084E08093C507D2
:102EB00010927B0710927A07E091C007F091C1074A
:102EC000099580917A07811105C081E080937A0786
:102ED00010927C07E0917B0781E08E0F80937B0747
:102EE000F0E0E458F84F80818093BB0090917B071D
:102EF00080917A07981708F47CCF85E88093BC000E
:102F00000AC085EC8093BC001092C50704C01092E3
:102F100058070E945F16FF91EF91BF91AF919F916B
:102F20008F917F916F915F914F913F912F910F9072
:102F30000FBE0F901F90189597FB072E16F4009464
:102F400007D077FD09D00E94021807FC05D03EF497
:102F5000909581959F4F0895709561957F4F089545
:102F6000A1E21A2EAA1BBB1BFD010DC0AA1FBB1F8D
:102F7000EE1FFF1FA217B307E407F50720F0A21BFF
:102F8000B30BE40BF50B661F771F881F991F1A946C
:102F900069F760957095809590959B01AC01BD0196
:102FA000CF010895052E97FB1EF400940E94E917A7
:102FB00057FD07D00E94B01707FC03D04EF40C94C5
:102FC000E91750954095309521953F4F4F4F5F4FF2
:102FD000089590958095709561957F4F8F4F9F4F85
:102FE0000895EE0FFF1F0590F491E02D09940E94C3
:102FF0001618A59F900DB49F900DA49F800D911D54
:1030000011240895AA1BBB1B51E107C0AA1FBB1FB7
:10301000A617B70710F0A61BB70B881F991F5A9564
:10302000A9F780959095BC01CD010895A29FB001AC
:10303000B39FC001A39F700D811D1124911DB29FEC
:10304000700D811D1124911D08950F931F93CF932F
:10305000DF938230910510F482E090E0E091C807A0
:10306000F091C90720E030E0A0E0B0E0309719F11E
:10307000408151810281138148175907C8F0841794
:10308000950769F4109731F012960C9312971396E6
:103090001C9327C00093C8071093C90722C02115AD
:1030A000310519F04217530718F49A01BD01EF01D9
:1030B000DF01F801DBCF21153105F9F0281B390BB1
:1030C0002430310580F48A819B816115710521F0DE
:1030D000FB019383828304C09093C9078093C80740
:1030E000FE01329644C0FE01E20FF31F81939193DB
:1030F00022503109398328833AC02091C607309184
:10310000C707232B41F42091020130910301309332
:10311000C7072093C60720910001309101012115B6
:10312000310541F42DB73EB740910401509105019E
:10313000241B350BE091C607F091C707E217F30790
:10314000A0F42E1B3F0B2817390778F0AC014E5F17
:103150005F4F2417350748F04E0F5F1F5093C70786
:103160004093C6078193919302C0E0E0F0E0CF0165
:10317000DF91CF911F910F910895CF93DF93009727
:1031800009F481C0FC01329713821282A091C80712
:10319000B091C907109781F420813181820F931F6C
:1031A0002091C6073091C7072817390751F5F093CA
:1031B000C707E093C60767C0ED0120E030E0CE17F7
:1031C000DF0740F44A815B819E0141155105F1F012
:1031D000EA01F5CFD383C28340815181840F951FCB
:1031E000C817D90759F488819981840F951F0296D1
:1031F000918380838A819B8193838283211531050A
:1032000029F4F093C907E093C8073DC0E901FB83A7
:10321000EA8349915991C40FD51FEC17FD0761F45A
:1032200080819181840F951F0296E901998388839B
:10323000828193819B838A83E0E0F0E012968D91F6
:103240009C911397009719F0FD01DC01F7CF8D9148
:103250009C9111979D012E5F3F4F820F931F2091EC
:10326000C6073091C7072817390769F4309729F442
:103270001092C9071092C80702C013821282B0933D
:10328000C707A093C607DF91CF910895A0E0B0E0F3
:10329000ECE4F9E10C94291AEC01009721F4CB013C
:1032A0000E942518B4C0FC01E60FF71F9C012250B4
:1032B0003109E217F30708F4A8C0D9010D911C9158
:1032C000119706171707B0F00530110508F49BC0D9
:1032D000C80104978617970708F495C00250110992
:1032E000061B170B019311936D937C93CF010E94E2
:1032F000BD1889C05B01A01AB10A4C01800E911E55
:10330000A091C807B091C907612C712CE12CF12C58
:10331000109709F446C08D919C911197A815B90595
:10332000B1F56C0142E0C40ED11CCA14DB0478F183
:103330004C018A189B08640142E0C40ED11C12960D
:10334000BC9012971396AC91B5E0CB16D10440F027
:10335000B282A38391828082D9016D937C9309C04C
:103360000E5F1F4F800F911FF90191838083EB2D1A
:10337000FA2FE114F10431F0D7011396FC93EE9388
:10338000129741C0F093C907E093C8073CC0681684
:10339000790608F43C017D0112960D90BC91A02D98
:1033A000B7CF8091C6079091C70788169906E1F4B8
:1033B00066167706C8F4809100019091010100978C
:1033C00041F48DB79EB74091040150910501841BD3
:1033D000950BE817F907C8F4F093C707E093C60701
:1033E000F901718360830FC0CB010E9425187C0115
:1033F000009759F0A801BE010E940C1ACE010E944C
:10340000BD18C70104C0CE0102C080E090E0CDB776
:10341000DEB7EEE00C94451AFB01DC0102C001901E
:103420000D9241505040D8F70895FB01DC018D9179
:10343000019080190110D9F3990B0895FB01DC016B
:1034400001900D920020E1F708952F923F924F9244
:103450005F926F927F928F929F92AF92BF92CF9224
:10346000DF92EF92FF920F931F93CF93DF93CDB72D
:10347000DEB7CA1BDB0B0FB6F894DEBF0FBECDBFA5
:1034800009942A88398848885F846E847D848C8476
:103490009B84AA84B984C884DF80EE80FD800C817F
:1034A0001B81AA81B981CE0FD11D0FB6F894DEBF62
:1034B0000FBECDBFED01089510E0CDE6D0E004C011
:1034C000FE010E94F1172196CE36D107C9F7F89474
:0234D000FFCF2C
:1034D2000000CA072000070006001B01000000A32D
:1034E20000004000140054000A0A416461667275CB
:1034F20069742066696E67657220646574656374B9
:10350200207465737400466F756E642066696E6719
:1035120065727072696E742073656E736F722100CA
:1035220053656E736F7220636F6E7461696E732080
:10353200002074656D706C61746573004469642069
:103542006E6F742066696E642066696E676572705C
:1035520072696E742073656E736F72203A2800442C
:10356200656C657465642100436F6D6D756E69638A
:103572006174696F6E206572726F7200436F756C51
:1035820064206E6F742064656C65746520696E20BA
:1035920074686174206C6F636174696F6E00457248
:1035A200726F722077726974696E6720746F206619
:1035B2006C61736800556E6B6E6F776E2065727208
:1035C2006F723A2030780057616974696E672066BD
:1035D2006F722076616C69642066696E676572201D
:1035E200746F20656E726F6C6C20617320230052C1
:1035F2006561647920746F20656E726F6C6C005027
:103602006C61636520796F7572002020526967686A
:1036120074205468756D6200496D6167652074613C
:103622006B656E00496D6167696E67206572726FC6
:103632007200556E6B6E6F776E206572726F7200DC
:10364200496D61676520636F6E76657274656400AB
:1036520052656D6F76652066696E67657200496DA9
:1036620061676520746F6F206D6573737900657291
:10367200727200456E726F6C6C204661696C656493
:1036820000202054727920416761696E00436F7592
:103692006C64206E6F742066696E642066696E6762
:1036A20065727072696E7420666561747572657395
:1036B2000049442000506C6163652073616D652090
:1036C20066696E67657220616761696E00506C6140
:1036D200636520796F75722072696768740020745F
:1036E20068756D6220616761696E2E2E2E004372CD
:1036F200656174696E67206D6F64656C20666F72B8
:103702002023005072696E7473206D617463686562
:1037120064210046696E6765727072696E74732007
:10372200646964206E6F74206D6174636800537401
:103732006F7265642100456E726F6C6C2053756305
:103742006365737300436F756C64206E6F742073CE
:10375200746F726520696E2074686174206C6F6387
:103762006174696F6E00466F756E642061207072BD
:10377200696E74206D617463682100466F756E64B2
:10378200204944202300446964206E6F74206669D6
:103792006E642061206D6174636800204E6F204D5D
:1037A2006174636820666F756E64004E6F2066698F
:1037B2006E67657220646574656374656400204198
:1037C2004343455353204752414E544544002044FD
:1037D2006F6F7220556E6C6F636B65640020776942
:1037E200746820636F6E666964656E6365206F66D8
:1037F200200057616974696E6720666F7220766176
:103802006C69642066696E6765722E2E2E00202018
:1038120020506C61636520596F75720020205269D7
:1038220067687420205468756D6200456E726F6C13
:103832006C696E6720626567756E006261636B63B7
:103842006C6F736500456E746572696E672064659E
:103852007461696C7300526561647920746F2065CC
:103862006E726F6C6C20612066696E676572707231
:10387200696E742100506C6561736520747970659E
:1038820020696E20746865204944202320286672CE
:103892006F6D203120746F203132372920796F7596
:1038A2002077616E7420746F20736176652074686E
:1038B20069732066696E6765722061732E2E2E0011
:1038C20074797065696400456E726F6C6C696E67BD
:1038D20020494420230064656C657465006261635D
:1038E2006B636C6F73653200506C65617365207435
:1038F20079706520696E2074686520494420232010
:103902002866726F6D203120746F20313237292082
:10391200796F752077616E7420746F2064656C65B1
:1039220074652E2E2E0064656C65746569640044AE
:10393200656C6574696E67204944202300000000AD
:103942000014078B08D5066107A706C106B3060D4A
:103952000A006E616E00696E66006F766600000096
:103962000000E8118B08E807EB070000000068126E
:103972008B08E807B812D1124712B91200000000F2
:0E39820043151615E807DF14B414BC14D01456
:00000001FF
